{
  "contractName": "CryptoXutie",
  "abi": [
    {
      "inputs": [],
      "stateMutability": "nonpayable",
      "type": "constructor"
    },
    {
      "anonymous": false,
      "inputs": [
        {
          "indexed": true,
          "internalType": "address",
          "name": "from",
          "type": "address"
        },
        {
          "indexed": true,
          "internalType": "address",
          "name": "to",
          "type": "address"
        },
        {
          "indexed": true,
          "internalType": "uint256",
          "name": "tokenId",
          "type": "uint256"
        }
      ],
      "name": "Transfer",
      "type": "event"
    },
    {
      "inputs": [
        {
          "internalType": "uint256",
          "name": "",
          "type": "uint256"
        }
      ],
      "name": "cryptoXuties",
      "outputs": [
        {
          "internalType": "string",
          "name": "",
          "type": "string"
        }
      ],
      "stateMutability": "view",
      "type": "function",
      "constant": true
    },
    {
      "inputs": [],
      "name": "name",
      "outputs": [
        {
          "internalType": "string",
          "name": "",
          "type": "string"
        }
      ],
      "stateMutability": "view",
      "type": "function",
      "constant": true
    },
    {
      "inputs": [],
      "name": "symbol",
      "outputs": [
        {
          "internalType": "string",
          "name": "",
          "type": "string"
        }
      ],
      "stateMutability": "view",
      "type": "function",
      "constant": true
    },
    {
      "inputs": [
        {
          "internalType": "string",
          "name": "_cryptoXutie",
          "type": "string"
        }
      ],
      "name": "mint",
      "outputs": [],
      "stateMutability": "nonpayable",
      "type": "function"
    }
  ],
  "bytecode": "0x60806040523480156200001157600080fd5b506040518060400160405280600b81526020017f43727970746f58757469650000000000000000000000000000000000000000008152506040518060400160405280600781526020017f4358555449455a000000000000000000000000000000000000000000000000008152508181816000908051906020019062000098929190620000bc565b508060019080519060200190620000b1929190620000bc565b5050505050620001d0565b828054620000ca906200019b565b90600052602060002090601f016020900481019282620000ee57600085556200013a565b82601f106200010957805160ff19168380011785556200013a565b828001600101855582156200013a579182015b82811115620001395782518255916020019190600101906200011c565b5b5090506200014991906200014d565b5090565b5b80821115620001685760008160009055506001016200014e565b5090565b7f4e487b7100000000000000000000000000000000000000000000000000000000600052602260045260246000fd5b60006002820490506001821680620001b457607f821691505b602082108103620001ca57620001c96200016c565b5b50919050565b610bed80620001e06000396000f3fe608060405234801561001057600080fd5b506004361061004c5760003560e01c806306fdde03146100515780633a93acad1461006f57806395d89b411461009f578063d85d3d27146100bd575b600080fd5b6100596100d9565b60405161006691906106fe565b60405180910390f35b6100896004803603810190610084919061076a565b61016b565b60405161009691906106fe565b60405180910390f35b6100a7610217565b6040516100b491906106fe565b60405180910390f35b6100d760048036038101906100d291906108cc565b6102a9565b005b6060600080546100e890610944565b80601f016020809104026020016040519081016040528092919081815260200182805461011490610944565b80156101615780601f1061013657610100808354040283529160200191610161565b820191906000526020600020905b81548152906001019060200180831161014457829003601f168201915b5050505050905090565b6004818154811061017b57600080fd5b90600052602060002001600091509050805461019690610944565b80601f01602080910402602001604051908101604052809291908181526020018280546101c290610944565b801561020f5780601f106101e45761010080835404028352916020019161020f565b820191906000526020600020905b8154815290600101906020018083116101f257829003601f168201915b505050505081565b60606001805461022690610944565b80601f016020809104026020016040519081016040528092919081815260200182805461025290610944565b801561029f5780601f106102745761010080835404028352916020019161029f565b820191906000526020600020905b81548152906001019060200180831161028257829003601f168201915b5050505050905090565b6005816040516102b991906109b1565b908152602001604051809103902060009054906101000a900460ff1615610315576040517f08c379a000000000000000000000000000000000000000000000000000000000815260040161030c90610a14565b60405180910390fd5b6004819080600181540180825580915050600190039060005260206000200160009091909190915090805190602001906103509291906105c2565b5061036c3360016004805490506103679190610a63565b6103a6565b600160058260405161037e91906109b1565b908152602001604051809103902060006101000a81548160ff02191690831515021790555050565b81600073ffffffffffffffffffffffffffffffffffffffff168173ffffffffffffffffffffffffffffffffffffffff1603610416576040517f08c379a000000000000000000000000000000000000000000000000000000000815260040161040d90610ae3565b60405180910390fd5b81600073ffffffffffffffffffffffffffffffffffffffff166002600083815260200190815260200160002060009054906101000a900473ffffffffffffffffffffffffffffffffffffffff1673ffffffffffffffffffffffffffffffffffffffff16146104b9576040517f08c379a00000000000000000000000000000000000000000000000000000000081526004016104b090610b4f565b60405180910390fd5b836002600085815260200190815260200160002060006101000a81548173ffffffffffffffffffffffffffffffffffffffff021916908373ffffffffffffffffffffffffffffffffffffffff160217905550600360008573ffffffffffffffffffffffffffffffffffffffff1673ffffffffffffffffffffffffffffffffffffffff168152602001908152602001600020600081548092919061055b90610b6f565b9190505550828473ffffffffffffffffffffffffffffffffffffffff16600073ffffffffffffffffffffffffffffffffffffffff167fddf252ad1be2c89b69c2b068fc378daa952ba7f163c4a11628f55a4df523b3ef60405160405180910390a450505050565b8280546105ce90610944565b90600052602060002090601f0160209004810192826105f05760008555610637565b82601f1061060957805160ff1916838001178555610637565b82800160010185558215610637579182015b8281111561063657825182559160200191906001019061061b565b5b5090506106449190610648565b5090565b5b80821115610661576000816000905550600101610649565b5090565b600081519050919050565b600082825260208201905092915050565b60005b8381101561069f578082015181840152602081019050610684565b838111156106ae576000848401525b50505050565b6000601f19601f8301169050919050565b60006106d082610665565b6106da8185610670565b93506106ea818560208601610681565b6106f3816106b4565b840191505092915050565b6000602082019050818103600083015261071881846106c5565b905092915050565b6000604051905090565b600080fd5b600080fd5b6000819050919050565b61074781610734565b811461075257600080fd5b50565b6000813590506107648161073e565b92915050565b6000602082840312156107805761077f61072a565b5b600061078e84828501610755565b91505092915050565b600080fd5b600080fd5b7f4e487b7100000000000000000000000000000000000000000000000000000000600052604160045260246000fd5b6107d9826106b4565b810181811067ffffffffffffffff821117156107f8576107f76107a1565b5b80604052505050565b600061080b610720565b905061081782826107d0565b919050565b600067ffffffffffffffff821115610837576108366107a1565b5b610840826106b4565b9050602081019050919050565b82818337600083830152505050565b600061086f61086a8461081c565b610801565b90508281526020810184848401111561088b5761088a61079c565b5b61089684828561084d565b509392505050565b600082601f8301126108b3576108b2610797565b5b81356108c384826020860161085c565b91505092915050565b6000602082840312156108e2576108e161072a565b5b600082013567ffffffffffffffff811115610900576108ff61072f565b5b61090c8482850161089e565b91505092915050565b7f4e487b7100000000000000000000000000000000000000000000000000000000600052602260045260246000fd5b6000600282049050600182168061095c57607f821691505b60208210810361096f5761096e610915565b5b50919050565b600081905092915050565b600061098b82610665565b6109958185610975565b93506109a5818560208601610681565b80840191505092915050565b60006109bd8284610980565b915081905092915050565b7f43727970746f587574696520416c726561647920457869737473000000000000600082015250565b60006109fe601a83610670565b9150610a09826109c8565b602082019050919050565b60006020820190508181036000830152610a2d816109f1565b9050919050565b7f4e487b7100000000000000000000000000000000000000000000000000000000600052601160045260246000fd5b6000610a6e82610734565b9150610a7983610734565b925082821015610a8c57610a8b610a34565b5b828203905092915050565b7f696e76616c696420616464726573730000000000000000000000000000000000600082015250565b6000610acd600f83610670565b9150610ad882610a97565b602082019050919050565b60006020820190508181036000830152610afc81610ac0565b9050919050565b7f746f6b656e20616c7265616479206d696e746564000000000000000000000000600082015250565b6000610b39601483610670565b9150610b4482610b03565b602082019050919050565b60006020820190508181036000830152610b6881610b2c565b9050919050565b6000610b7a82610734565b91507fffffffffffffffffffffffffffffffffffffffffffffffffffffffffffffffff8203610bac57610bab610a34565b5b60018201905091905056fea2646970667358221220d99812b4aa1e9654499e4985dcea768658983c008187648b8f57e6b7d30a604f64736f6c634300080d0033",
  "immutableReferences": {},
  "source": "// SPDX-License-Identifier: MIT\npragma solidity ^0.8.0;\nimport \"./ERC721Connector.sol\";\n\ncontract CryptoXutie is ERC721Connector {\n    string[] public cryptoXuties;\n\n    mapping(string => bool) _cryptoXutieExists;\n\n    function mint(string memory _cryptoXutie) public {\n        require(!_cryptoXutieExists[_cryptoXutie], \"CryptoXutie Already Exists\");\n        cryptoXuties.push(_cryptoXutie);\n        _mint(msg.sender, cryptoXuties.length - 1);\n        _cryptoXutieExists[_cryptoXutie] = true;\n    }\n\n    constructor() ERC721Connector(\"CryptoXutie\", \"CXUTIEZ\") {}\n}\n",
  "sourcePath": "/Users/givikhartishvili/Desktop/nft/nft-marketplace/src/contracts/CryptoXutiez.sol",
  "compiler": {
    "name": "solc",
    "version": "0.8.13+commit.abaa5c0e.Emscripten.clang"
  },
  "schemaVersion": "3.4.7",
  "updatedAt": "2022-04-22T10:11:43.189Z",
  "networkType": "ethereum",
  "devdoc": {
    "kind": "dev",
    "methods": {},
    "version": 1
  },
  "userdoc": {
    "kind": "user",
    "methods": {},
    "version": 1
  }
}