{
  "contractName": "CryptoXutie",
  "abi": [
    {
      "inputs": [],
      "stateMutability": "nonpayable",
      "type": "constructor"
    },
    {
      "anonymous": false,
      "inputs": [
        {
          "indexed": true,
          "internalType": "address",
          "name": "from",
          "type": "address"
        },
        {
          "indexed": true,
          "internalType": "address",
          "name": "to",
          "type": "address"
        },
        {
          "indexed": true,
          "internalType": "uint256",
          "name": "tokenId",
          "type": "uint256"
        }
      ],
      "name": "Transfer",
      "type": "event"
    },
    {
      "inputs": [
        {
          "internalType": "address",
          "name": "_owner",
          "type": "address"
        }
      ],
      "name": "balanceOf",
      "outputs": [
        {
          "internalType": "uint256",
          "name": "",
          "type": "uint256"
        }
      ],
      "stateMutability": "view",
      "type": "function",
      "constant": true
    },
    {
      "inputs": [
        {
          "internalType": "uint256",
          "name": "",
          "type": "uint256"
        }
      ],
      "name": "cryptoXuties",
      "outputs": [
        {
          "internalType": "string",
          "name": "",
          "type": "string"
        }
      ],
      "stateMutability": "view",
      "type": "function",
      "constant": true
    },
    {
      "inputs": [],
      "name": "name",
      "outputs": [
        {
          "internalType": "string",
          "name": "",
          "type": "string"
        }
      ],
      "stateMutability": "view",
      "type": "function",
      "constant": true
    },
    {
      "inputs": [
        {
          "internalType": "uint256",
          "name": "_tokenId",
          "type": "uint256"
        }
      ],
      "name": "ownerOf",
      "outputs": [
        {
          "internalType": "address",
          "name": "",
          "type": "address"
        }
      ],
      "stateMutability": "view",
      "type": "function",
      "constant": true
    },
    {
      "inputs": [],
      "name": "symbol",
      "outputs": [
        {
          "internalType": "string",
          "name": "",
          "type": "string"
        }
      ],
      "stateMutability": "view",
      "type": "function",
      "constant": true
    },
    {
      "inputs": [
        {
          "internalType": "uint256",
          "name": "_index",
          "type": "uint256"
        }
      ],
      "name": "tokenByIndex",
      "outputs": [
        {
          "internalType": "uint256",
          "name": "",
          "type": "uint256"
        }
      ],
      "stateMutability": "view",
      "type": "function",
      "constant": true
    },
    {
      "inputs": [],
      "name": "totalSupply",
      "outputs": [
        {
          "internalType": "uint256",
          "name": "",
          "type": "uint256"
        }
      ],
      "stateMutability": "view",
      "type": "function",
      "constant": true
    },
    {
      "inputs": [
        {
          "internalType": "string",
          "name": "_cryptoXutie",
          "type": "string"
        }
      ],
      "name": "mint",
      "outputs": [],
      "stateMutability": "nonpayable",
      "type": "function"
    }
  ],
  "bytecode": "0x60806040523480156200001157600080fd5b506040518060400160405280600b81526020017f43727970746f58757469650000000000000000000000000000000000000000008152506040518060400160405280600781526020017f4358555449455a000000000000000000000000000000000000000000000000008152508181816000908051906020019062000098929190620000bc565b508060019080519060200190620000b1929190620000bc565b5050505050620001d0565b828054620000ca906200019b565b90600052602060002090601f016020900481019282620000ee57600085556200013a565b82601f106200010957805160ff19168380011785556200013a565b828001600101855582156200013a579182015b82811115620001395782518255916020019190600101906200011c565b5b5090506200014991906200014d565b5090565b5b80821115620001685760008160009055506001016200014e565b5090565b7f4e487b7100000000000000000000000000000000000000000000000000000000600052602260045260246000fd5b60006002820490506001821680620001b457607f821691505b602082108103620001ca57620001c96200016c565b5b50919050565b61114d80620001e06000396000f3fe608060405234801561001057600080fd5b50600436106100885760003560e01c80636352211e1161005b5780636352211e1461012957806370a082311461015957806395d89b4114610189578063d85d3d27146101a757610088565b806306fdde031461008d57806318160ddd146100ab5780633a93acad146100c95780634f6ccce7146100f9575b600080fd5b6100956101c3565b6040516100a29190610a78565b60405180910390f35b6100b3610255565b6040516100c09190610ab3565b60405180910390f35b6100e360048036038101906100de9190610b0e565b610262565b6040516100f09190610a78565b60405180910390f35b610113600480360381019061010e9190610b0e565b61030e565b6040516101209190610ab3565b60405180910390f35b610143600480360381019061013e9190610b0e565b61037d565b6040516101509190610b7c565b60405180910390f35b610173600480360381019061016e9190610bc3565b61042e565b6040516101809190610ab3565b60405180910390f35b6101916104e8565b60405161019e9190610a78565b60405180910390f35b6101c160048036038101906101bc9190610d25565b61057a565b005b6060600080546101d290610d9d565b80601f01602080910402602001604051908101604052809291908181526020018280546101fe90610d9d565b801561024b5780601f106102205761010080835404028352916020019161024b565b820191906000526020600020905b81548152906001019060200180831161022e57829003601f168201915b5050505050905090565b6000600480549050905090565b6008818154811061027257600080fd5b90600052602060002001600091509050805461028d90610d9d565b80601f01602080910402602001604051908101604052809291908181526020018280546102b990610d9d565b80156103065780601f106102db57610100808354040283529160200191610306565b820191906000526020600020905b8154815290600101906020018083116102e957829003601f168201915b505050505081565b60006004805490508210610357576040517f08c379a000000000000000000000000000000000000000000000000000000000815260040161034e90610e1a565b60405180910390fd5b6004828154811061036b5761036a610e3a565b5b90600052602060002001549050919050565b6000806002600084815260200190815260200160002060009054906101000a900473ffffffffffffffffffffffffffffffffffffffff169050600073ffffffffffffffffffffffffffffffffffffffff168173ffffffffffffffffffffffffffffffffffffffff1603610425576040517f08c379a000000000000000000000000000000000000000000000000000000000815260040161041c90610eb5565b60405180910390fd5b80915050919050565b600081600073ffffffffffffffffffffffffffffffffffffffff168173ffffffffffffffffffffffffffffffffffffffff16036104a0576040517f08c379a000000000000000000000000000000000000000000000000000000000815260040161049790610f21565b60405180910390fd5b600360008473ffffffffffffffffffffffffffffffffffffffff1673ffffffffffffffffffffffffffffffffffffffff16815260200190815260200160002054915050919050565b6060600180546104f790610d9d565b80601f016020809104026020016040519081016040528092919081815260200182805461052390610d9d565b80156105705780601f1061054557610100808354040283529160200191610570565b820191906000526020600020905b81548152906001019060200180831161055357829003601f168201915b5050505050905090565b60098160405161058a9190610f7d565b908152602001604051809103902060009054906101000a900460ff16156105e6576040517f08c379a00000000000000000000000000000000000000000000000000000000081526004016105dd90610fe0565b60405180910390fd5b60088190806001815401808255809150506001900390600052602060002001600090919091909150908051906020019061062192919061093c565b5061063d336001600880549050610638919061102f565b610677565b600160098260405161064f9190610f7d565b908152602001604051809103902060006101000a81548160ff02191690831515021790555050565b61068182826106f4565b61068a81610910565b600660008373ffffffffffffffffffffffffffffffffffffffff1673ffffffffffffffffffffffffffffffffffffffff1681526020019081526020016000208190806001815401808255809150506001900390600052602060002001600090919091909150555050565b81600073ffffffffffffffffffffffffffffffffffffffff168173ffffffffffffffffffffffffffffffffffffffff1603610764576040517f08c379a000000000000000000000000000000000000000000000000000000000815260040161075b90610f21565b60405180910390fd5b81600073ffffffffffffffffffffffffffffffffffffffff166002600083815260200190815260200160002060009054906101000a900473ffffffffffffffffffffffffffffffffffffffff1673ffffffffffffffffffffffffffffffffffffffff1614610807576040517f08c379a00000000000000000000000000000000000000000000000000000000081526004016107fe906110af565b60405180910390fd5b836002600085815260200190815260200160002060006101000a81548173ffffffffffffffffffffffffffffffffffffffff021916908373ffffffffffffffffffffffffffffffffffffffff160217905550600360008573ffffffffffffffffffffffffffffffffffffffff1673ffffffffffffffffffffffffffffffffffffffff16815260200190815260200160002060008154809291906108a9906110cf565b9190505550828473ffffffffffffffffffffffffffffffffffffffff16600073ffffffffffffffffffffffffffffffffffffffff167fddf252ad1be2c89b69c2b068fc378daa952ba7f163c4a11628f55a4df523b3ef60405160405180910390a450505050565b600481908060018154018082558091505060019003906000526020600020016000909190919091505550565b82805461094890610d9d565b90600052602060002090601f01602090048101928261096a57600085556109b1565b82601f1061098357805160ff19168380011785556109b1565b828001600101855582156109b1579182015b828111156109b0578251825591602001919060010190610995565b5b5090506109be91906109c2565b5090565b5b808211156109db5760008160009055506001016109c3565b5090565b600081519050919050565b600082825260208201905092915050565b60005b83811015610a195780820151818401526020810190506109fe565b83811115610a28576000848401525b50505050565b6000601f19601f8301169050919050565b6000610a4a826109df565b610a5481856109ea565b9350610a648185602086016109fb565b610a6d81610a2e565b840191505092915050565b60006020820190508181036000830152610a928184610a3f565b905092915050565b6000819050919050565b610aad81610a9a565b82525050565b6000602082019050610ac86000830184610aa4565b92915050565b6000604051905090565b600080fd5b600080fd5b610aeb81610a9a565b8114610af657600080fd5b50565b600081359050610b0881610ae2565b92915050565b600060208284031215610b2457610b23610ad8565b5b6000610b3284828501610af9565b91505092915050565b600073ffffffffffffffffffffffffffffffffffffffff82169050919050565b6000610b6682610b3b565b9050919050565b610b7681610b5b565b82525050565b6000602082019050610b916000830184610b6d565b92915050565b610ba081610b5b565b8114610bab57600080fd5b50565b600081359050610bbd81610b97565b92915050565b600060208284031215610bd957610bd8610ad8565b5b6000610be784828501610bae565b91505092915050565b600080fd5b600080fd5b7f4e487b7100000000000000000000000000000000000000000000000000000000600052604160045260246000fd5b610c3282610a2e565b810181811067ffffffffffffffff82111715610c5157610c50610bfa565b5b80604052505050565b6000610c64610ace565b9050610c708282610c29565b919050565b600067ffffffffffffffff821115610c9057610c8f610bfa565b5b610c9982610a2e565b9050602081019050919050565b82818337600083830152505050565b6000610cc8610cc384610c75565b610c5a565b905082815260208101848484011115610ce457610ce3610bf5565b5b610cef848285610ca6565b509392505050565b600082601f830112610d0c57610d0b610bf0565b5b8135610d1c848260208601610cb5565b91505092915050565b600060208284031215610d3b57610d3a610ad8565b5b600082013567ffffffffffffffff811115610d5957610d58610add565b5b610d6584828501610cf7565b91505092915050565b7f4e487b7100000000000000000000000000000000000000000000000000000000600052602260045260246000fd5b60006002820490506001821680610db557607f821691505b602082108103610dc857610dc7610d6e565b5b50919050565b7f496e646578206f7574206f662072616e67650000000000000000000000000000600082015250565b6000610e046012836109ea565b9150610e0f82610dce565b602082019050919050565b60006020820190508181036000830152610e3381610df7565b9050919050565b7f4e487b7100000000000000000000000000000000000000000000000000000000600052603260045260246000fd5b7f696e76616c696420746f6b656e20494400000000000000000000000000000000600082015250565b6000610e9f6010836109ea565b9150610eaa82610e69565b602082019050919050565b60006020820190508181036000830152610ece81610e92565b9050919050565b7f696e76616c696420616464726573730000000000000000000000000000000000600082015250565b6000610f0b600f836109ea565b9150610f1682610ed5565b602082019050919050565b60006020820190508181036000830152610f3a81610efe565b9050919050565b600081905092915050565b6000610f57826109df565b610f618185610f41565b9350610f718185602086016109fb565b80840191505092915050565b6000610f898284610f4c565b915081905092915050565b7f43727970746f587574696520416c726561647920457869737473000000000000600082015250565b6000610fca601a836109ea565b9150610fd582610f94565b602082019050919050565b60006020820190508181036000830152610ff981610fbd565b9050919050565b7f4e487b7100000000000000000000000000000000000000000000000000000000600052601160045260246000fd5b600061103a82610a9a565b915061104583610a9a565b92508282101561105857611057611000565b5b828203905092915050565b7f746f6b656e20616c7265616479206d696e746564000000000000000000000000600082015250565b60006110996014836109ea565b91506110a482611063565b602082019050919050565b600060208201905081810360008301526110c88161108c565b9050919050565b60006110da82610a9a565b91507fffffffffffffffffffffffffffffffffffffffffffffffffffffffffffffffff820361110c5761110b611000565b5b60018201905091905056fea2646970667358221220cd39eff5b9c9738e248c55c48d19456f2ea08a4aded533a4c9bc96bf9a511c8064736f6c634300080d0033",
  "immutableReferences": {},
  "source": "// SPDX-License-Identifier: MIT\npragma solidity ^0.8.0;\nimport \"./ERC721Connector.sol\";\n\ncontract CryptoXutie is ERC721Connector {\n    string[] public cryptoXuties;\n\n    mapping(string => bool) _cryptoXutieExists;\n\n    function mint(string memory _cryptoXutie) public {\n        require(!_cryptoXutieExists[_cryptoXutie], \"CryptoXutie Already Exists\");\n        cryptoXuties.push(_cryptoXutie);\n        _mint(msg.sender, cryptoXuties.length - 1);\n        _cryptoXutieExists[_cryptoXutie] = true;\n    }\n\n    constructor() ERC721Connector(\"CryptoXutie\", \"CXUTIEZ\") {}\n}\n",
  "sourcePath": "/Users/givikhartishvili/Desktop/nft/nft-marketplace/src/contracts/CryptoXutiez.sol",
  "compiler": {
    "name": "solc",
    "version": "0.8.13+commit.abaa5c0e.Emscripten.clang"
  },
  "schemaVersion": "3.4.7",
  "updatedAt": "2022-04-27T15:10:11.905Z",
  "networkType": "ethereum",
  "devdoc": {
    "kind": "dev",
    "methods": {},
    "version": 1
  },
  "userdoc": {
    "kind": "user",
    "methods": {},
    "version": 1
  }
}