{
  "contractName": "CryptoXutie",
  "abi": [
    {
      "inputs": [],
      "stateMutability": "nonpayable",
      "type": "constructor"
    },
    {
      "inputs": [],
      "name": "name",
      "outputs": [
        {
          "internalType": "string",
          "name": "",
          "type": "string"
        }
      ],
      "stateMutability": "view",
      "type": "function",
      "constant": true
    },
    {
      "inputs": [],
      "name": "symbol",
      "outputs": [
        {
          "internalType": "string",
          "name": "",
          "type": "string"
        }
      ],
      "stateMutability": "view",
      "type": "function",
      "constant": true
    }
  ],
  "bytecode": "0x608060405234801561001057600080fd5b506040518060400160405280600b81526020017f43727970746f58757469650000000000000000000000000000000000000000008152506040518060400160405280600781526020017f4358555449455a00000000000000000000000000000000000000000000000000815250818181600090805190602001906100959291906100b6565b5080600190805190602001906100ac9291906100b6565b50505050506101b9565b8280546100c290610188565b90600052602060002090601f0160209004810192826100e4576000855561012b565b82601f106100fd57805160ff191683800117855561012b565b8280016001018555821561012b579182015b8281111561012a57825182559160200191906001019061010f565b5b509050610138919061013c565b5090565b5b8082111561015557600081600090555060010161013d565b5090565b7f4e487b7100000000000000000000000000000000000000000000000000000000600052602260045260246000fd5b600060028204905060018216806101a057607f821691505b6020821081036101b3576101b2610159565b5b50919050565b6102ec806101c86000396000f3fe608060405234801561001057600080fd5b50600436106100365760003560e01c806306fdde031461003b57806395d89b4114610059575b600080fd5b610043610077565b6040516100509190610234565b60405180910390f35b610061610109565b60405161006e9190610234565b60405180910390f35b60606000805461008690610285565b80601f01602080910402602001604051908101604052809291908181526020018280546100b290610285565b80156100ff5780601f106100d4576101008083540402835291602001916100ff565b820191906000526020600020905b8154815290600101906020018083116100e257829003601f168201915b5050505050905090565b60606001805461011890610285565b80601f016020809104026020016040519081016040528092919081815260200182805461014490610285565b80156101915780601f1061016657610100808354040283529160200191610191565b820191906000526020600020905b81548152906001019060200180831161017457829003601f168201915b5050505050905090565b600081519050919050565b600082825260208201905092915050565b60005b838110156101d55780820151818401526020810190506101ba565b838111156101e4576000848401525b50505050565b6000601f19601f8301169050919050565b60006102068261019b565b61021081856101a6565b93506102208185602086016101b7565b610229816101ea565b840191505092915050565b6000602082019050818103600083015261024e81846101fb565b905092915050565b7f4e487b7100000000000000000000000000000000000000000000000000000000600052602260045260246000fd5b6000600282049050600182168061029d57607f821691505b6020821081036102b0576102af610256565b5b5091905056fea2646970667358221220c4baff86bb8dff0202d992fb3066137c869567980380e8f62f0656b7c4dc3e8164736f6c634300080d0033",
  "immutableReferences": {},
  "source": "// SPDX-License-Identifier: MIT\npragma solidity ^0.8.0;\nimport './ERC721Connector.sol';\n\ncontract CryptoXutie is ERC721Connector {\n\n    \n\n    constructor() ERC721Connector('CryptoXutie','CXUTIEZ')\n    {}\n\n}",
  "sourcePath": "/Users/givikhartishvili/Desktop/nft/nft-marketplace/src/contracts/CryptoXutiez.sol",
  "compiler": {
    "name": "solc",
    "version": "0.8.13+commit.abaa5c0e.Emscripten.clang"
  },
  "schemaVersion": "3.4.7",
  "updatedAt": "2022-04-21T11:51:21.738Z",
  "networkType": "ethereum",
  "devdoc": {
    "kind": "dev",
    "methods": {},
    "version": 1
  },
  "userdoc": {
    "kind": "user",
    "methods": {},
    "version": 1
  }
}