{
  "contractName": "ERC721Enumerable",
  "abi": [
    {
      "anonymous": false,
      "inputs": [
        {
          "indexed": true,
          "internalType": "address",
          "name": "from",
          "type": "address"
        },
        {
          "indexed": true,
          "internalType": "address",
          "name": "to",
          "type": "address"
        },
        {
          "indexed": true,
          "internalType": "uint256",
          "name": "tokenId",
          "type": "uint256"
        }
      ],
      "name": "Transfer",
      "type": "event"
    },
    {
      "inputs": [
        {
          "internalType": "address",
          "name": "_owner",
          "type": "address"
        }
      ],
      "name": "balanceOf",
      "outputs": [
        {
          "internalType": "uint256",
          "name": "",
          "type": "uint256"
        }
      ],
      "stateMutability": "view",
      "type": "function"
    },
    {
      "inputs": [
        {
          "internalType": "uint256",
          "name": "_tokenId",
          "type": "uint256"
        }
      ],
      "name": "ownerOf",
      "outputs": [
        {
          "internalType": "address",
          "name": "",
          "type": "address"
        }
      ],
      "stateMutability": "view",
      "type": "function"
    },
    {
      "inputs": [],
      "name": "totalSupply",
      "outputs": [
        {
          "internalType": "uint256",
          "name": "",
          "type": "uint256"
        }
      ],
      "stateMutability": "view",
      "type": "function"
    },
    {
      "inputs": [
        {
          "internalType": "uint256",
          "name": "_index",
          "type": "uint256"
        }
      ],
      "name": "tokenByIndex",
      "outputs": [
        {
          "internalType": "uint256",
          "name": "",
          "type": "uint256"
        }
      ],
      "stateMutability": "view",
      "type": "function"
    }
  ],
  "bytecode": "0x608060405234801561001057600080fd5b506105e6806100206000396000f3fe608060405234801561001057600080fd5b506004361061004c5760003560e01c806318160ddd146100515780634f6ccce71461006f5780636352211e1461009f57806370a08231146100cf575b600080fd5b6100596100ff565b60405161006691906102fe565b60405180910390f35b6100896004803603810190610084919061034a565b61010c565b60405161009691906102fe565b60405180910390f35b6100b960048036038101906100b4919061034a565b61017b565b6040516100c691906103b8565b60405180910390f35b6100e960048036038101906100e491906103ff565b61022b565b6040516100f691906102fe565b60405180910390f35b6000600280549050905090565b60006002805490508210610155576040517f08c379a000000000000000000000000000000000000000000000000000000000815260040161014c90610489565b60405180910390fd5b60028281548110610169576101686104a9565b5b90600052602060002001549050919050565b60008060008084815260200190815260200160002060009054906101000a900473ffffffffffffffffffffffffffffffffffffffff169050600073ffffffffffffffffffffffffffffffffffffffff168173ffffffffffffffffffffffffffffffffffffffff1603610222576040517f08c379a000000000000000000000000000000000000000000000000000000000815260040161021990610524565b60405180910390fd5b80915050919050565b600081600073ffffffffffffffffffffffffffffffffffffffff168173ffffffffffffffffffffffffffffffffffffffff160361029d576040517f08c379a000000000000000000000000000000000000000000000000000000000815260040161029490610590565b60405180910390fd5b600160008473ffffffffffffffffffffffffffffffffffffffff1673ffffffffffffffffffffffffffffffffffffffff16815260200190815260200160002054915050919050565b6000819050919050565b6102f8816102e5565b82525050565b600060208201905061031360008301846102ef565b92915050565b600080fd5b610327816102e5565b811461033257600080fd5b50565b6000813590506103448161031e565b92915050565b6000602082840312156103605761035f610319565b5b600061036e84828501610335565b91505092915050565b600073ffffffffffffffffffffffffffffffffffffffff82169050919050565b60006103a282610377565b9050919050565b6103b281610397565b82525050565b60006020820190506103cd60008301846103a9565b92915050565b6103dc81610397565b81146103e757600080fd5b50565b6000813590506103f9816103d3565b92915050565b60006020828403121561041557610414610319565b5b6000610423848285016103ea565b91505092915050565b600082825260208201905092915050565b7f496e646578206f7574206f662072616e67650000000000000000000000000000600082015250565b600061047360128361042c565b915061047e8261043d565b602082019050919050565b600060208201905081810360008301526104a281610466565b9050919050565b7f4e487b7100000000000000000000000000000000000000000000000000000000600052603260045260246000fd5b7f696e76616c696420746f6b656e20494400000000000000000000000000000000600082015250565b600061050e60108361042c565b9150610519826104d8565b602082019050919050565b6000602082019050818103600083015261053d81610501565b9050919050565b7f696e76616c696420616464726573730000000000000000000000000000000000600082015250565b600061057a600f8361042c565b915061058582610544565b602082019050919050565b600060208201905081810360008301526105a98161056d565b905091905056fea2646970667358221220585f550bf0a47ac3c9a345d00ae5988555782a41ba4e6774d7c47399942b201464736f6c634300080d0033",
  "immutableReferences": {},
  "source": "// SPDX-License-Identifier: MIT\npragma solidity ^0.8.0;\n\nimport './ERC721.sol';\n\ncontract ERC721Enumerable is ERC721 {\n\n    uint256[] private _allTokens;\n    mapping(uint256 => uint256) private _allTokensIndex;\n    mapping(address => uint256[]) private _ownedTokens;\n    mapping(uint256 => uint256) private _ownedTokensIndex;\n\n\n    function totalSupply() external view returns(uint256){\n        return _allTokens.length;\n    }\n\n    function tokenByIndex(uint256 _index) external view returns(uint256){\n        require(_index < _allTokens.length, 'Index out of range');\n        return _allTokens[_index]; \n    } \n\n    function _mint(address to, uint256 tokenId) internal override(ERC721) {\n        super._mint(to, tokenId);\n        _addTokensToTotalSupply(tokenId);\n        _ownedTokens[to].push(tokenId);\n    }\n\n    function _addTokensToTotalSupply(uint256 tokenId) private {\n        _allTokens.push(tokenId);\n    }\n}",
  "sourcePath": "/Users/givikhartishvili/Desktop/nft/nft-marketplace/src/contracts/ERC721Enumerable.sol",
  "compiler": {
    "name": "solc",
    "version": "0.8.13+commit.abaa5c0e.Emscripten.clang"
  },
  "schemaVersion": "3.4.7",
  "updatedAt": "2022-04-27T15:09:15.869Z",
  "devdoc": {
    "kind": "dev",
    "methods": {},
    "version": 1
  },
  "userdoc": {
    "kind": "user",
    "methods": {},
    "version": 1
  }
}